{"abi":[{"type":"constructor","inputs":[{"name":"_pokeToken","type":"address","internalType":"address"}],"stateMutability":"nonpayable"},{"type":"function","name":"BASE_URI","inputs":[],"outputs":[{"name":"","type":"string","internalType":"string"}],"stateMutability":"view"},{"type":"function","name":"approve","inputs":[{"name":"to","type":"address","internalType":"address"},{"name":"tokenId","type":"uint256","internalType":"uint256"}],"outputs":[],"stateMutability":"nonpayable"},{"type":"function","name":"approveFromContract","inputs":[{"name":"to","type":"address","internalType":"address"},{"name":"tokenId","type":"uint256","internalType":"uint256"}],"outputs":[],"stateMutability":"nonpayable"},{"type":"function","name":"availableForMint","inputs":[{"name":"","type":"uint256","internalType":"uint256"}],"outputs":[{"name":"","type":"bool","internalType":"bool"}],"stateMutability":"view"},{"type":"function","name":"balanceOf","inputs":[{"name":"owner","type":"address","internalType":"address"}],"outputs":[{"name":"","type":"uint256","internalType":"uint256"}],"stateMutability":"view"},{"type":"function","name":"coolingPeriod","inputs":[],"outputs":[{"name":"","type":"uint256","internalType":"uint256"}],"stateMutability":"view"},{"type":"function","name":"getAllValidIDs","inputs":[],"outputs":[{"name":"","type":"uint256[]","internalType":"uint256[]"}],"stateMutability":"view"},{"type":"function","name":"getApproved","inputs":[{"name":"tokenId","type":"uint256","internalType":"uint256"}],"outputs":[{"name":"","type":"address","internalType":"address"}],"stateMutability":"view"},{"type":"function","name":"isApprovedForAll","inputs":[{"name":"owner","type":"address","internalType":"address"},{"name":"operator","type":"address","internalType":"address"}],"outputs":[{"name":"","type":"bool","internalType":"bool"}],"stateMutability":"view"},{"type":"function","name":"lastMintTime","inputs":[{"name":"","type":"address","internalType":"address"}],"outputs":[{"name":"","type":"uint256","internalType":"uint256"}],"stateMutability":"view"},{"type":"function","name":"mint","inputs":[{"name":"pokemanId","type":"uint256","internalType":"uint256"}],"outputs":[],"stateMutability":"nonpayable"},{"type":"function","name":"minted","inputs":[{"name":"","type":"uint256","internalType":"uint256"}],"outputs":[{"name":"","type":"bool","internalType":"bool"}],"stateMutability":"view"},{"type":"function","name":"name","inputs":[],"outputs":[{"name":"","type":"string","internalType":"string"}],"stateMutability":"view"},{"type":"function","name":"onERC721Received","inputs":[{"name":"","type":"address","internalType":"address"},{"name":"","type":"address","internalType":"address"},{"name":"","type":"uint256","internalType":"uint256"},{"name":"","type":"bytes","internalType":"bytes"}],"outputs":[{"name":"","type":"bytes4","internalType":"bytes4"}],"stateMutability":"pure"},{"type":"function","name":"owner","inputs":[],"outputs":[{"name":"","type":"address","internalType":"address"}],"stateMutability":"view"},{"type":"function","name":"ownerOf","inputs":[{"name":"tokenId","type":"uint256","internalType":"uint256"}],"outputs":[{"name":"","type":"address","internalType":"address"}],"stateMutability":"view"},{"type":"function","name":"pokeToken","inputs":[],"outputs":[{"name":"","type":"address","internalType":"contract PokeToken"}],"stateMutability":"view"},{"type":"function","name":"preMint","inputs":[{"name":"pokemanIds","type":"uint256[]","internalType":"uint256[]"}],"outputs":[],"stateMutability":"nonpayable"},{"type":"function","name":"renounceOwnership","inputs":[],"outputs":[],"stateMutability":"nonpayable"},{"type":"function","name":"requiredStake","inputs":[],"outputs":[{"name":"","type":"uint256","internalType":"uint256"}],"stateMutability":"view"},{"type":"function","name":"safeTransferFrom","inputs":[{"name":"from","type":"address","internalType":"address"},{"name":"to","type":"address","internalType":"address"},{"name":"tokenId","type":"uint256","internalType":"uint256"}],"outputs":[],"stateMutability":"nonpayable"},{"type":"function","name":"safeTransferFrom","inputs":[{"name":"from","type":"address","internalType":"address"},{"name":"to","type":"address","internalType":"address"},{"name":"tokenId","type":"uint256","internalType":"uint256"},{"name":"data","type":"bytes","internalType":"bytes"}],"outputs":[],"stateMutability":"nonpayable"},{"type":"function","name":"setApprovalForAll","inputs":[{"name":"operator","type":"address","internalType":"address"},{"name":"approved","type":"bool","internalType":"bool"}],"outputs":[],"stateMutability":"nonpayable"},{"type":"function","name":"setAvailableForMint","inputs":[{"name":"pokemanIds","type":"uint256[]","internalType":"uint256[]"}],"outputs":[],"stateMutability":"nonpayable"},{"type":"function","name":"setCoolingPeriod","inputs":[{"name":"_period","type":"uint256","internalType":"uint256"}],"outputs":[],"stateMutability":"nonpayable"},{"type":"function","name":"setRequiredStake","inputs":[{"name":"_amount","type":"uint256","internalType":"uint256"}],"outputs":[],"stateMutability":"nonpayable"},{"type":"function","name":"stake","inputs":[{"name":"amount","type":"uint256","internalType":"uint256"}],"outputs":[],"stateMutability":"nonpayable"},{"type":"function","name":"stakeTimestamp","inputs":[{"name":"","type":"address","internalType":"address"}],"outputs":[{"name":"","type":"uint256","internalType":"uint256"}],"stateMutability":"view"},{"type":"function","name":"stakedAmount","inputs":[{"name":"","type":"address","internalType":"address"}],"outputs":[{"name":"","type":"uint256","internalType":"uint256"}],"stateMutability":"view"},{"type":"function","name":"supportsInterface","inputs":[{"name":"interfaceId","type":"bytes4","internalType":"bytes4"}],"outputs":[{"name":"","type":"bool","internalType":"bool"}],"stateMutability":"view"},{"type":"function","name":"symbol","inputs":[],"outputs":[{"name":"","type":"string","internalType":"string"}],"stateMutability":"view"},{"type":"function","name":"tokenURI","inputs":[{"name":"tokenId","type":"uint256","internalType":"uint256"}],"outputs":[{"name":"","type":"string","internalType":"string"}],"stateMutability":"view"},{"type":"function","name":"transferFrom","inputs":[{"name":"from","type":"address","internalType":"address"},{"name":"to","type":"address","internalType":"address"},{"name":"tokenId","type":"uint256","internalType":"uint256"}],"outputs":[],"stateMutability":"nonpayable"},{"type":"function","name":"transferOwnership","inputs":[{"name":"newOwner","type":"address","internalType":"address"}],"outputs":[],"stateMutability":"nonpayable"},{"type":"function","name":"unstake","inputs":[],"outputs":[],"stateMutability":"nonpayable"},{"type":"function","name":"validIDs","inputs":[{"name":"","type":"uint256","internalType":"uint256"}],"outputs":[{"name":"","type":"uint256","internalType":"uint256"}],"stateMutability":"view"},{"type":"event","name":"Approval","inputs":[{"name":"owner","type":"address","indexed":true,"internalType":"address"},{"name":"approved","type":"address","indexed":true,"internalType":"address"},{"name":"tokenId","type":"uint256","indexed":true,"internalType":"uint256"}],"anonymous":false},{"type":"event","name":"ApprovalForAll","inputs":[{"name":"owner","type":"address","indexed":true,"internalType":"address"},{"name":"operator","type":"address","indexed":true,"internalType":"address"},{"name":"approved","type":"bool","indexed":false,"internalType":"bool"}],"anonymous":false},{"type":"event","name":"OwnershipTransferred","inputs":[{"name":"previousOwner","type":"address","indexed":true,"internalType":"address"},{"name":"newOwner","type":"address","indexed":true,"internalType":"address"}],"anonymous":false},{"type":"event","name":"PokemanAvailabilitySet","inputs":[{"name":"pokemanId","type":"uint256","indexed":true,"internalType":"uint256"}],"anonymous":false},{"type":"event","name":"PokemanMinted","inputs":[{"name":"to","type":"address","indexed":true,"internalType":"address"},{"name":"pokemanId","type":"uint256","indexed":true,"internalType":"uint256"}],"anonymous":false},{"type":"event","name":"PokemanPreMinted","inputs":[{"name":"to","type":"address","indexed":true,"internalType":"address"},{"name":"pokemanId","type":"uint256","indexed":true,"internalType":"uint256"}],"anonymous":false},{"type":"event","name":"Staked","inputs":[{"name":"user","type":"address","indexed":true,"internalType":"address"},{"name":"amount","type":"uint256","indexed":false,"internalType":"uint256"}],"anonymous":false},{"type":"event","name":"Transfer","inputs":[{"name":"from","type":"address","indexed":true,"internalType":"address"},{"name":"to","type":"address","indexed":true,"internalType":"address"},{"name":"tokenId","type":"uint256","indexed":true,"internalType":"uint256"}],"anonymous":false},{"type":"event","name":"Unstaked","inputs":[{"name":"user","type":"address","indexed":true,"internalType":"address"},{"name":"amount","type":"uint256","indexed":false,"internalType":"uint256"}],"anonymous":false},{"type":"error","name":"ERC721IncorrectOwner","inputs":[{"name":"sender","type":"address","internalType":"address"},{"name":"tokenId","type":"uint256","internalType":"uint256"},{"name":"owner","type":"address","internalType":"address"}]},{"type":"error","name":"ERC721InsufficientApproval","inputs":[{"name":"operator","type":"address","internalType":"address"},{"name":"tokenId","type":"uint256","internalType":"uint256"}]},{"type":"error","name":"ERC721InvalidApprover","inputs":[{"name":"approver","type":"address","internalType":"address"}]},{"type":"error","name":"ERC721InvalidOperator","inputs":[{"name":"operator","type":"address","internalType":"address"}]},{"type":"error","name":"ERC721InvalidOwner","inputs":[{"name":"owner","type":"address","internalType":"address"}]},{"type":"error","name":"ERC721InvalidReceiver","inputs":[{"name":"receiver","type":"address","internalType":"address"}]},{"type":"error","name":"ERC721InvalidSender","inputs":[{"name":"sender","type":"address","internalType":"address"}]},{"type":"error","name":"ERC721NonexistentToken","inputs":[{"name":"tokenId","type":"uint256","internalType":"uint256"}]},{"type":"error","name":"OwnableInvalidOwner","inputs":[{"name":"owner","type":"address","internalType":"address"}]},{"type":"error","name":"OwnableUnauthorizedAccount","inputs":[{"name":"account","type":"address","internalType":"address"}]}],"bytecode":{"object":"0x6080604052670de0b6b3a7640000600d55610258600e55348015610021575f5ffd5b50604051613e10380380613e10833981810160405281019061004391906102b8565b336040518060400160405280600a81526020017f506f6b656d616e4e4654000000000000000000000000000000000000000000008152506040518060400160405280600381526020017f504d4e0000000000000000000000000000000000000000000000000000000000815250815f90816100be9190610520565b5080600190816100ce9190610520565b5050505f73ffffffffffffffffffffffffffffffffffffffff168173ffffffffffffffffffffffffffffffffffffffff1603610141575f6040517f1e4fbdf700000000000000000000000000000000000000000000000000000000815260040161013891906105fe565b60405180910390fd5b6101508161019760201b60201c565b5080600f5f6101000a81548173ffffffffffffffffffffffffffffffffffffffff021916908373ffffffffffffffffffffffffffffffffffffffff16021790555050610617565b5f60065f9054906101000a900473ffffffffffffffffffffffffffffffffffffffff1690508160065f6101000a81548173ffffffffffffffffffffffffffffffffffffffff021916908373ffffffffffffffffffffffffffffffffffffffff1602179055508173ffffffffffffffffffffffffffffffffffffffff168173ffffffffffffffffffffffffffffffffffffffff167f8be0079c531659141344cd1fd0a4f28419497f9722a3daafe3b4186f6b6457e060405160405180910390a35050565b5f5ffd5b5f73ffffffffffffffffffffffffffffffffffffffff82169050919050565b5f6102878261025e565b9050919050565b6102978161027d565b81146102a1575f5ffd5b50565b5f815190506102b28161028e565b92915050565b5f602082840312156102cd576102cc61025a565b5b5f6102da848285016102a4565b91505092915050565b5f81519050919050565b7f4e487b71000000000000000000000000000000000000000000000000000000005f52604160045260245ffd5b7f4e487b71000000000000000000000000000000000000000000000000000000005f52602260045260245ffd5b5f600282049050600182168061035e57607f821691505b6020821081036103715761037061031a565b5b50919050565b5f819050815f5260205f209050919050565b5f6020601f8301049050919050565b5f82821b905092915050565b5f600883026103d37fffffffffffffffffffffffffffffffffffffffffffffffffffffffffffffffff82610398565b6103dd8683610398565b95508019841693508086168417925050509392505050565b5f819050919050565b5f819050919050565b5f61042161041c610417846103f5565b6103fe565b6103f5565b9050919050565b5f819050919050565b61043a83610407565b61044e61044682610428565b8484546103a4565b825550505050565b5f5f905090565b610465610456565b610470818484610431565b505050565b5b81811015610493576104885f8261045d565b600181019050610476565b5050565b601f8211156104d8576104a981610377565b6104b284610389565b810160208510156104c1578190505b6104d56104cd85610389565b830182610475565b50505b505050565b5f82821c905092915050565b5f6104f85f19846008026104dd565b1980831691505092915050565b5f61051083836104e9565b9150826002028217905092915050565b610529826102e3565b67ffffffffffffffff811115610542576105416102ed565b5b61054c8254610347565b610557828285610497565b5f60209050601f831160018114610588575f8415610576578287015190505b6105808582610505565b8655506105e7565b601f19841661059686610377565b5f5b828110156105bd57848901518255600182019150602085019450602081019050610598565b868310156105da57848901516105d6601f8916826104e9565b8355505b6001600288020188555050505b505050505050565b6105f88161027d565b82525050565b5f6020820190506106115f8301846105ef565b92915050565b6137ec806106245f395ff3fe608060405234801561000f575f5ffd5b506004361061021a575f3560e01c8063715018a611610123578063a694fc3a116100ab578063dbddb26a1161007a578063dbddb26a14610648578063dfd43d2414610666578063e985e9c514610682578063f2fde38b146106b2578063f9931855146106ce5761021a565b8063a694fc3a146105c4578063af9cb9f6146105e0578063b88d4fde146105fc578063c87b56dd146106185761021a565b80638ff395ac116100f25780638ff395ac146105205780639328beee1461055057806395d89b411461056e578063a0712d681461058c578063a22cb465146105a85761021a565b8063715018a6146104ac5780637bf722a4146104b65780637dc0bf3f146104d25780638da5cb5b146105025761021a565b80632def6620116101a6578063492bc46811610175578063492bc468146103ce5780636352211e146103ec5780636aa71d181461041c578063702590771461044c57806370a082311461047c5761021a565b80632def66201461036e57806335c62540146103785780634268fdf51461039457806342842e0e146103b25761021a565b8063095ea7b3116101ed578063095ea7b3146102b85780630ac40567146102d4578063150b7a021461030457806319cb355d1461033457806323b872dd146103525761021a565b806301ffc9a71461021e57806306fdde031461024e57806307c874311461026c578063081812fc14610288575b5f5ffd5b61023860048036038101906102339190612740565b6106fe565b6040516102459190612785565b60405180910390f35b6102566107df565b604051610263919061280e565b60405180910390f35b61028660048036038101906102819190612861565b61086e565b005b6102a2600480360381019061029d9190612861565b610880565b6040516102af91906128cb565b60405180910390f35b6102d260048036038101906102cd919061290e565b61089b565b005b6102ee60048036038101906102e99190612861565b6108b1565b6040516102fb919061295b565b60405180910390f35b61031e600480360381019061031991906129d5565b6108d1565b60405161032b9190612a68565b60405180910390f35b61033c6108e5565b604051610349919061295b565b60405180910390f35b61036c60048036038101906103679190612a81565b6108eb565b005b6103766109ea565b005b610392600480360381019061038d9190612b26565b610ca9565b005b61039c610d9a565b6040516103a99190612bcc565b60405180910390f35b6103cc60048036038101906103c79190612a81565b610dbf565b005b6103d6610dde565b6040516103e39190612c9c565b60405180910390f35b61040660048036038101906104019190612861565b610e34565b60405161041391906128cb565b60405180910390f35b61043660048036038101906104319190612cbc565b610e45565b604051610443919061295b565b60405180910390f35b61046660048036038101906104619190612cbc565b610e5a565b604051610473919061295b565b60405180910390f35b61049660048036038101906104919190612cbc565b610e6f565b6040516104a3919061295b565b60405180910390f35b6104b4610f25565b005b6104d060048036038101906104cb9190612b26565b610f38565b005b6104ec60048036038101906104e79190612861565b611094565b6040516104f99190612785565b60405180910390f35b61050a6110b1565b60405161051791906128cb565b60405180910390f35b61053a60048036038101906105359190612861565b6110d9565b6040516105479190612785565b60405180910390f35b6105586110f6565b604051610565919061295b565b60405180910390f35b6105766110fc565b604051610583919061280e565b60405180910390f35b6105a660048036038101906105a19190612861565b61118c565b005b6105c260048036038101906105bd9190612d11565b611412565b005b6105de60048036038101906105d99190612861565b611428565b005b6105fa60048036038101906105f59190612861565b611660565b005b61061660048036038101906106119190612e77565b611672565b005b610632600480360381019061062d9190612861565b611697565b60405161063f919061280e565b60405180910390f35b610650611758565b60405161065d919061280e565b60405180910390f35b610680600480360381019061067b919061290e565b611774565b005b61069c60048036038101906106979190612ef7565b611801565b6040516106a99190612785565b60405180910390f35b6106cc60048036038101906106c79190612cbc565b61188f565b005b6106e860048036038101906106e39190612cbc565b611913565b6040516106f5919061295b565b60405180910390f35b5f7f80ac58cd000000000000000000000000000000000000000000000000000000007bffffffffffffffffffffffffffffffffffffffffffffffffffffffff1916827bffffffffffffffffffffffffffffffffffffffffffffffffffffffff191614806107c857507f5b5e139f000000000000000000000000000000000000000000000000000000007bffffffffffffffffffffffffffffffffffffffffffffffffffffffff1916827bffffffffffffffffffffffffffffffffffffffffffffffffffffffff1916145b806107d857506107d782611928565b5b9050919050565b60605f80546107ed90612f62565b80601f016020809104026020016040519081016040528092919081815260200182805461081990612f62565b80156108645780601f1061083b57610100808354040283529160200191610864565b820191905f5260205f20905b81548152906001019060200180831161084757829003601f168201915b5050505050905090565b610876611991565b80600e8190555050565b5f61088a82611a18565b5061089482611a9e565b9050919050565b6108ad82826108a8611ad7565b611ade565b5050565b600981815481106108c0575f80fd5b905f5260205f20015f915090505481565b5f63150b7a0260e01b905095945050505050565b600d5481565b5f73ffffffffffffffffffffffffffffffffffffffff168273ffffffffffffffffffffffffffffffffffffffff160361095b575f6040517f64a0ae9200000000000000000000000000000000000000000000000000000000815260040161095291906128cb565b60405180910390fd5b5f61096e8383610969611ad7565b611af0565b90508373ffffffffffffffffffffffffffffffffffffffff168173ffffffffffffffffffffffffffffffffffffffff16146109e4578382826040517f64283d7b0000000000000000000000000000000000000000000000000000000081526004016109db93929190612f92565b60405180910390fd5b50505050565b5f600a5f3373ffffffffffffffffffffffffffffffffffffffff1673ffffffffffffffffffffffffffffffffffffffff1681526020019081526020015f205411610a69576040517f08c379a0000000000000000000000000000000000000000000000000000000008152600401610a6090613011565b60405180910390fd5b600e54600b5f3373ffffffffffffffffffffffffffffffffffffffff1673ffffffffffffffffffffffffffffffffffffffff1681526020019081526020015f2054610ab4919061305c565b421015610af6576040517f08c379a0000000000000000000000000000000000000000000000000000000008152600401610aed906130ff565b60405180910390fd5b5f600a5f3373ffffffffffffffffffffffffffffffffffffffff1673ffffffffffffffffffffffffffffffffffffffff1681526020019081526020015f205490505f600a5f3373ffffffffffffffffffffffffffffffffffffffff1673ffffffffffffffffffffffffffffffffffffffff1681526020019081526020015f20819055505f600c5f3373ffffffffffffffffffffffffffffffffffffffff1673ffffffffffffffffffffffffffffffffffffffff1681526020019081526020015f2081905550600f5f9054906101000a900473ffffffffffffffffffffffffffffffffffffffff1673ffffffffffffffffffffffffffffffffffffffff1663a9059cbb33836040518363ffffffff1660e01b8152600401610c1792919061311d565b6020604051808303815f875af1158015610c33573d5f5f3e3d5ffd5b505050506040513d601f19601f82011682018060405250810190610c579190613158565b503373ffffffffffffffffffffffffffffffffffffffff167f0f5bb82176feb1b5e747e28471aa92156a04d9f3ab9f45f28e2d704232b93f7582604051610c9e919061295b565b60405180910390a250565b610cb1611991565b5f5f90505b82829050811015610d95576009838383818110610cd657610cd5613183565b5b90506020020135908060018154018082558091505060019003905f5260205f20015f9091909190915055600160085f858585818110610d1857610d17613183565b5b9050602002013581526020019081526020015f205f6101000a81548160ff021916908315150217905550828282818110610d5557610d54613183565b5b905060200201357fd06a15bf0c1e516b4ae6cef860c5b9e42f9a1bf429d7746a29dae28c5a5c2d9660405160405180910390a28080600101915050610cb6565b505050565b600f5f9054906101000a900473ffffffffffffffffffffffffffffffffffffffff1681565b610dd983838360405180602001604052805f815250611672565b505050565b60606009805480602002602001604051908101604052809291908181526020018280548015610e2a57602002820191905f5260205f20905b815481526020019060010190808311610e16575b5050505050905090565b5f610e3e82611a18565b9050919050565b600b602052805f5260405f205f915090505481565b600c602052805f5260405f205f915090505481565b5f5f73ffffffffffffffffffffffffffffffffffffffff168273ffffffffffffffffffffffffffffffffffffffff1603610ee0575f6040517f89c62b64000000000000000000000000000000000000000000000000000000008152600401610ed791906128cb565b60405180910390fd5b60035f8373ffffffffffffffffffffffffffffffffffffffff1673ffffffffffffffffffffffffffffffffffffffff1681526020019081526020015f20549050919050565b610f2d611991565b610f365f611cfb565b565b610f40611991565b5f5f90505b8282905081101561108f575f838383818110610f6457610f63613183565b5b90506020020135905060075f8281526020019081526020015f205f9054906101000a900460ff1615610fcb576040517f08c379a0000000000000000000000000000000000000000000000000000000008152600401610fc2906131fa565b60405180910390fd5b600160075f8381526020019081526020015f205f6101000a81548160ff021916908315150217905550600984848481811061100957611008613183565b5b90506020020135908060018154018082558091505060019003905f5260205f20015f909190919091505561103d3082611dbe565b803073ffffffffffffffffffffffffffffffffffffffff167f359c4769e002a0947748dbcf9e83540e96227afd70f657f20eaebe368597ff4a60405160405180910390a3508080600101915050610f45565b505050565b6007602052805f5260405f205f915054906101000a900460ff1681565b5f60065f9054906101000a900473ffffffffffffffffffffffffffffffffffffffff16905090565b6008602052805f5260405f205f915054906101000a900460ff1681565b600e5481565b60606001805461110b90612f62565b80601f016020809104026020016040519081016040528092919081815260200182805461113790612f62565b80156111825780601f1061115957610100808354040283529160200191611182565b820191905f5260205f20905b81548152906001019060200180831161116557829003601f168201915b5050505050905090565b60085f8281526020019081526020015f205f9054906101000a900460ff166111e9576040517f08c379a00000000000000000000000000000000000000000000000000000000081526004016111e090613288565b60405180910390fd5b60075f8281526020019081526020015f205f9054906101000a900460ff1615611247576040517f08c379a000000000000000000000000000000000000000000000000000000000815260040161123e906131fa565b60405180910390fd5b600d54600a5f3373ffffffffffffffffffffffffffffffffffffffff1673ffffffffffffffffffffffffffffffffffffffff1681526020019081526020015f205410156112c9576040517f08c379a00000000000000000000000000000000000000000000000000000000081526004016112c0906132f0565b60405180910390fd5b600e54600b5f3373ffffffffffffffffffffffffffffffffffffffff1673ffffffffffffffffffffffffffffffffffffffff1681526020019081526020015f2054611314919061305c565b421015611356576040517f08c379a000000000000000000000000000000000000000000000000000000000815260040161134d906130ff565b60405180910390fd5b600160075f8381526020019081526020015f205f6101000a81548160ff02191690831515021790555042600b5f3373ffffffffffffffffffffffffffffffffffffffff1673ffffffffffffffffffffffffffffffffffffffff1681526020019081526020015f20819055506113cb3382611dbe565b803373ffffffffffffffffffffffffffffffffffffffff167feeb1eb5e08319147f43921cc2dd485ab544db5bbb0157e810d44a17b9d6f2e4d60405160405180910390a350565b61142461141d611ad7565b8383611ddb565b5050565b600d5481101561146d576040517f08c379a00000000000000000000000000000000000000000000000000000000081526004016114649061337e565b60405180910390fd5b5f600a5f3373ffffffffffffffffffffffffffffffffffffffff1673ffffffffffffffffffffffffffffffffffffffff1681526020019081526020015f2054146114ec576040517f08c379a00000000000000000000000000000000000000000000000000000000081526004016114e3906133e6565b60405180910390fd5b600f5f9054906101000a900473ffffffffffffffffffffffffffffffffffffffff1673ffffffffffffffffffffffffffffffffffffffff166323b872dd3330846040518463ffffffff1660e01b815260040161154a93929190613404565b6020604051808303815f875af1158015611566573d5f5f3e3d5ffd5b505050506040513d601f19601f8201168201806040525081019061158a9190613158565b5080600a5f3373ffffffffffffffffffffffffffffffffffffffff1673ffffffffffffffffffffffffffffffffffffffff1681526020019081526020015f208190555042600c5f3373ffffffffffffffffffffffffffffffffffffffff1673ffffffffffffffffffffffffffffffffffffffff1681526020019081526020015f20819055503373ffffffffffffffffffffffffffffffffffffffff167f9e71bc8eea02a63969f509818f2dafb9254532904319f9dbda79b67bd34a5f3d82604051611655919061295b565b60405180910390a250565b611668611991565b80600d8190555050565b61167d8484846108eb565b611691611688611ad7565b85858585611f44565b50505050565b60605f73ffffffffffffffffffffffffffffffffffffffff166116b9836120f0565b73ffffffffffffffffffffffffffffffffffffffff160361170f576040517f08c379a0000000000000000000000000000000000000000000000000000000008152600401611706906134a9565b60405180910390fd5b6040518060600160405280602281526020016137956022913961173183612129565b604051602001611742929190613501565b6040516020818303038152906040529050919050565b6040518060600160405280602281526020016137956022913981565b61177c611991565b3073ffffffffffffffffffffffffffffffffffffffff1661179c82610e34565b73ffffffffffffffffffffffffffffffffffffffff16146117f2576040517f08c379a00000000000000000000000000000000000000000000000000000000081526004016117e990613594565b60405180910390fd5b6117fd828230611ade565b5050565b5f60055f8473ffffffffffffffffffffffffffffffffffffffff1673ffffffffffffffffffffffffffffffffffffffff1681526020019081526020015f205f8373ffffffffffffffffffffffffffffffffffffffff1673ffffffffffffffffffffffffffffffffffffffff1681526020019081526020015f205f9054906101000a900460ff16905092915050565b611897611991565b5f73ffffffffffffffffffffffffffffffffffffffff168173ffffffffffffffffffffffffffffffffffffffff1603611907575f6040517f1e4fbdf70000000000000000000000000000000000000000000000000000000081526004016118fe91906128cb565b60405180910390fd5b61191081611cfb565b50565b600a602052805f5260405f205f915090505481565b5f7f01ffc9a7000000000000000000000000000000000000000000000000000000007bffffffffffffffffffffffffffffffffffffffffffffffffffffffff1916827bffffffffffffffffffffffffffffffffffffffffffffffffffffffff1916149050919050565b611999611ad7565b73ffffffffffffffffffffffffffffffffffffffff166119b76110b1565b73ffffffffffffffffffffffffffffffffffffffff1614611a16576119da611ad7565b6040517f118cdaa7000000000000000000000000000000000000000000000000000000008152600401611a0d91906128cb565b60405180910390fd5b565b5f5f611a23836120f0565b90505f73ffffffffffffffffffffffffffffffffffffffff168173ffffffffffffffffffffffffffffffffffffffff1603611a9557826040517f7e273289000000000000000000000000000000000000000000000000000000008152600401611a8c919061295b565b60405180910390fd5b80915050919050565b5f60045f8381526020019081526020015f205f9054906101000a900473ffffffffffffffffffffffffffffffffffffffff169050919050565b5f33905090565b611aeb8383836001612282565b505050565b5f5f611afb846120f0565b90505f73ffffffffffffffffffffffffffffffffffffffff168373ffffffffffffffffffffffffffffffffffffffff1614611b3c57611b3b818486612441565b5b5f73ffffffffffffffffffffffffffffffffffffffff168173ffffffffffffffffffffffffffffffffffffffff1614611bc757611b7b5f855f5f612282565b600160035f8373ffffffffffffffffffffffffffffffffffffffff1673ffffffffffffffffffffffffffffffffffffffff1681526020019081526020015f205f82825403925050819055505b5f73ffffffffffffffffffffffffffffffffffffffff168573ffffffffffffffffffffffffffffffffffffffff1614611c4657600160035f8773ffffffffffffffffffffffffffffffffffffffff1673ffffffffffffffffffffffffffffffffffffffff1681526020019081526020015f205f82825401925050819055505b8460025f8681526020019081526020015f205f6101000a81548173ffffffffffffffffffffffffffffffffffffffff021916908373ffffffffffffffffffffffffffffffffffffffff160217905550838573ffffffffffffffffffffffffffffffffffffffff168273ffffffffffffffffffffffffffffffffffffffff167fddf252ad1be2c89b69c2b068fc378daa952ba7f163c4a11628f55a4df523b3ef60405160405180910390a4809150509392505050565b5f60065f9054906101000a900473ffffffffffffffffffffffffffffffffffffffff1690508160065f6101000a81548173ffffffffffffffffffffffffffffffffffffffff021916908373ffffffffffffffffffffffffffffffffffffffff1602179055508173ffffffffffffffffffffffffffffffffffffffff168173ffffffffffffffffffffffffffffffffffffffff167f8be0079c531659141344cd1fd0a4f28419497f9722a3daafe3b4186f6b6457e060405160405180910390a35050565b611dd7828260405180602001604052805f815250612504565b5050565b5f73ffffffffffffffffffffffffffffffffffffffff168273ffffffffffffffffffffffffffffffffffffffff1603611e4b57816040517f5b08ba18000000000000000000000000000000000000000000000000000000008152600401611e4291906128cb565b60405180910390fd5b8060055f8573ffffffffffffffffffffffffffffffffffffffff1673ffffffffffffffffffffffffffffffffffffffff1681526020019081526020015f205f8473ffffffffffffffffffffffffffffffffffffffff1673ffffffffffffffffffffffffffffffffffffffff1681526020019081526020015f205f6101000a81548160ff0219169083151502179055508173ffffffffffffffffffffffffffffffffffffffff168373ffffffffffffffffffffffffffffffffffffffff167f17307eab39ab6107e8899845ad3d59bd9653f200f220920489ca2b5937696c3183604051611f379190612785565b60405180910390a3505050565b5f8373ffffffffffffffffffffffffffffffffffffffff163b11156120e9578273ffffffffffffffffffffffffffffffffffffffff1663150b7a02868685856040518563ffffffff1660e01b8152600401611fa29493929190613604565b6020604051808303815f875af1925050508015611fdd57506040513d601f19601f82011682018060405250810190611fda9190613662565b60015b61205e573d805f811461200b576040519150601f19603f3d011682016040523d82523d5f602084013e612010565b606091505b505f81510361205657836040517f64a0ae9200000000000000000000000000000000000000000000000000000000815260040161204d91906128cb565b60405180910390fd5b805181602001fd5b63150b7a0260e01b7bffffffffffffffffffffffffffffffffffffffffffffffffffffffff1916817bffffffffffffffffffffffffffffffffffffffffffffffffffffffff1916146120e757836040517f64a0ae920000000000000000000000000000000000000000000000000000000081526004016120de91906128cb565b60405180910390fd5b505b5050505050565b5f60025f8381526020019081526020015f205f9054906101000a900473ffffffffffffffffffffffffffffffffffffffff169050919050565b60605f820361216f576040518060400160405280600181526020017f3000000000000000000000000000000000000000000000000000000000000000815250905061227d565b5f8290505f5b5f821461219e5780806121879061368d565b915050600a826121979190613701565b9150612175565b5f8167ffffffffffffffff8111156121b9576121b8612d53565b5b6040519080825280601f01601f1916602001820160405280156121eb5781602001600182028036833780820191505090505b5090505b5f8514612276576001826122039190613731565b9150600a856122129190613764565b603061221e919061305c565b60f81b81838151811061223457612233613183565b5b60200101907effffffffffffffffffffffffffffffffffffffffffffffffffffffffffffff191690815f1a905350600a8561226f9190613701565b94506121ef565b8093505050505b919050565b80806122ba57505f73ffffffffffffffffffffffffffffffffffffffff168273ffffffffffffffffffffffffffffffffffffffff1614155b156123ec575f6122c984611a18565b90505f73ffffffffffffffffffffffffffffffffffffffff168373ffffffffffffffffffffffffffffffffffffffff161415801561233357508273ffffffffffffffffffffffffffffffffffffffff168173ffffffffffffffffffffffffffffffffffffffff1614155b801561234657506123448184611801565b155b1561238857826040517fa9fbf51f00000000000000000000000000000000000000000000000000000000815260040161237f91906128cb565b60405180910390fd5b81156123ea57838573ffffffffffffffffffffffffffffffffffffffff168273ffffffffffffffffffffffffffffffffffffffff167f8c5be1e5ebec7d5bd14f71427d1e84f3dd0314c0f7b2291e5b200ac8c7c3b92560405160405180910390a45b505b8360045f8581526020019081526020015f205f6101000a81548173ffffffffffffffffffffffffffffffffffffffff021916908373ffffffffffffffffffffffffffffffffffffffff16021790555050505050565b61244c838383612527565b6124ff575f73ffffffffffffffffffffffffffffffffffffffff168373ffffffffffffffffffffffffffffffffffffffff16036124c057806040517f7e2732890000000000000000000000000000000000000000000000000000000081526004016124b7919061295b565b60405180910390fd5b81816040517f177e802f0000000000000000000000000000000000000000000000000000000081526004016124f692919061311d565b60405180910390fd5b505050565b61250e83836125e7565b612522612519611ad7565b5f858585611f44565b505050565b5f5f73ffffffffffffffffffffffffffffffffffffffff168373ffffffffffffffffffffffffffffffffffffffff16141580156125de57508273ffffffffffffffffffffffffffffffffffffffff168473ffffffffffffffffffffffffffffffffffffffff16148061259f575061259e8484611801565b5b806125dd57508273ffffffffffffffffffffffffffffffffffffffff166125c583611a9e565b73ffffffffffffffffffffffffffffffffffffffff16145b5b90509392505050565b5f73ffffffffffffffffffffffffffffffffffffffff168273ffffffffffffffffffffffffffffffffffffffff1603612657575f6040517f64a0ae9200000000000000000000000000000000000000000000000000000000815260040161264e91906128cb565b60405180910390fd5b5f61266383835f611af0565b90505f73ffffffffffffffffffffffffffffffffffffffff168173ffffffffffffffffffffffffffffffffffffffff16146126d5575f6040517f73c6ac6e0000000000000000000000000000000000000000000000000000000081526004016126cc91906128cb565b60405180910390fd5b505050565b5f604051905090565b5f5ffd5b5f5ffd5b5f7fffffffff0000000000000000000000000000000000000000000000000000000082169050919050565b61271f816126eb565b8114612729575f5ffd5b50565b5f8135905061273a81612716565b92915050565b5f60208284031215612755576127546126e3565b5b5f6127628482850161272c565b91505092915050565b5f8115159050919050565b61277f8161276b565b82525050565b5f6020820190506127985f830184612776565b92915050565b5f81519050919050565b5f82825260208201905092915050565b8281835e5f83830152505050565b5f601f19601f8301169050919050565b5f6127e08261279e565b6127ea81856127a8565b93506127fa8185602086016127b8565b612803816127c6565b840191505092915050565b5f6020820190508181035f83015261282681846127d6565b905092915050565b5f819050919050565b6128408161282e565b811461284a575f5ffd5b50565b5f8135905061285b81612837565b92915050565b5f60208284031215612876576128756126e3565b5b5f6128838482850161284d565b91505092915050565b5f73ffffffffffffffffffffffffffffffffffffffff82169050919050565b5f6128b58261288c565b9050919050565b6128c5816128ab565b82525050565b5f6020820190506128de5f8301846128bc565b92915050565b6128ed816128ab565b81146128f7575f5ffd5b50565b5f81359050612908816128e4565b92915050565b5f5f60408385031215612924576129236126e3565b5b5f612931858286016128fa565b92505060206129428582860161284d565b9150509250929050565b6129558161282e565b82525050565b5f60208201905061296e5f83018461294c565b92915050565b5f5ffd5b5f5ffd5b5f5ffd5b5f5f83601f84011261299557612994612974565b5b8235905067ffffffffffffffff8111156129b2576129b1612978565b5b6020830191508360018202830111156129ce576129cd61297c565b5b9250929050565b5f5f5f5f5f608086880312156129ee576129ed6126e3565b5b5f6129fb888289016128fa565b9550506020612a0c888289016128fa565b9450506040612a1d8882890161284d565b935050606086013567ffffffffffffffff811115612a3e57612a3d6126e7565b5b612a4a88828901612980565b92509250509295509295909350565b612a62816126eb565b82525050565b5f602082019050612a7b5f830184612a59565b92915050565b5f5f5f60608486031215612a9857612a976126e3565b5b5f612aa5868287016128fa565b9350506020612ab6868287016128fa565b9250506040612ac78682870161284d565b9150509250925092565b5f5f83601f840112612ae657612ae5612974565b5b8235905067ffffffffffffffff811115612b0357612b02612978565b5b602083019150836020820283011115612b1f57612b1e61297c565b5b9250929050565b5f5f60208385031215612b3c57612b3b6126e3565b5b5f83013567ffffffffffffffff811115612b5957612b586126e7565b5b612b6585828601612ad1565b92509250509250929050565b5f819050919050565b5f612b94612b8f612b8a8461288c565b612b71565b61288c565b9050919050565b5f612ba582612b7a565b9050919050565b5f612bb682612b9b565b9050919050565b612bc681612bac565b82525050565b5f602082019050612bdf5f830184612bbd565b92915050565b5f81519050919050565b5f82825260208201905092915050565b5f819050602082019050919050565b612c178161282e565b82525050565b5f612c288383612c0e565b60208301905092915050565b5f602082019050919050565b5f612c4a82612be5565b612c548185612bef565b9350612c5f83612bff565b805f5b83811015612c8f578151612c768882612c1d565b9750612c8183612c34565b925050600181019050612c62565b5085935050505092915050565b5f6020820190508181035f830152612cb48184612c40565b905092915050565b5f60208284031215612cd157612cd06126e3565b5b5f612cde848285016128fa565b91505092915050565b612cf08161276b565b8114612cfa575f5ffd5b50565b5f81359050612d0b81612ce7565b92915050565b5f5f60408385031215612d2757612d266126e3565b5b5f612d34858286016128fa565b9250506020612d4585828601612cfd565b9150509250929050565b5f5ffd5b7f4e487b71000000000000000000000000000000000000000000000000000000005f52604160045260245ffd5b612d89826127c6565b810181811067ffffffffffffffff82111715612da857612da7612d53565b5b80604052505050565b5f612dba6126da565b9050612dc68282612d80565b919050565b5f67ffffffffffffffff821115612de557612de4612d53565b5b612dee826127c6565b9050602081019050919050565b828183375f83830152505050565b5f612e1b612e1684612dcb565b612db1565b905082815260208101848484011115612e3757612e36612d4f565b5b612e42848285612dfb565b509392505050565b5f82601f830112612e5e57612e5d612974565b5b8135612e6e848260208601612e09565b91505092915050565b5f5f5f5f60808587031215612e8f57612e8e6126e3565b5b5f612e9c878288016128fa565b9450506020612ead878288016128fa565b9350506040612ebe8782880161284d565b925050606085013567ffffffffffffffff811115612edf57612ede6126e7565b5b612eeb87828801612e4a565b91505092959194509250565b5f5f60408385031215612f0d57612f0c6126e3565b5b5f612f1a858286016128fa565b9250506020612f2b858286016128fa565b9150509250929050565b7f4e487b71000000000000000000000000000000000000000000000000000000005f52602260045260245ffd5b5f6002820490506001821680612f7957607f821691505b602082108103612f8c57612f8b612f35565b5b50919050565b5f606082019050612fa55f8301866128bc565b612fb2602083018561294c565b612fbf60408301846128bc565b949350505050565b7f506f6b656d616e4e46543a206e6f7468696e6720746f20756e7374616b6500005f82015250565b5f612ffb601e836127a8565b915061300682612fc7565b602082019050919050565b5f6020820190508181035f83015261302881612fef565b9050919050565b7f4e487b71000000000000000000000000000000000000000000000000000000005f52601160045260245ffd5b5f6130668261282e565b91506130718361282e565b92508282019050808211156130895761308861302f565b5b92915050565b7f506f6b656d616e4e46543a20636f6f6c696e6720706572696f64206e6f74206f5f8201527f7665720000000000000000000000000000000000000000000000000000000000602082015250565b5f6130e96023836127a8565b91506130f48261308f565b604082019050919050565b5f6020820190508181035f830152613116816130dd565b9050919050565b5f6040820190506131305f8301856128bc565b61313d602083018461294c565b9392505050565b5f8151905061315281612ce7565b92915050565b5f6020828403121561316d5761316c6126e3565b5b5f61317a84828501613144565b91505092915050565b7f4e487b71000000000000000000000000000000000000000000000000000000005f52603260045260245ffd5b7f506f6b656d616e4e46543a20616c7265616479206d696e7465640000000000005f82015250565b5f6131e4601a836127a8565b91506131ef826131b0565b602082019050919050565b5f6020820190508181035f830152613211816131d8565b9050919050565b7f506f6b656d616e4e46543a206e6f7420617661696c61626c6520666f72206d695f8201527f6e74696e67000000000000000000000000000000000000000000000000000000602082015250565b5f6132726025836127a8565b915061327d82613218565b604082019050919050565b5f6020820190508181035f83015261329f81613266565b9050919050565b7f506f6b656d616e4e46543a206e6f7420656e6f756768207374616b65640000005f82015250565b5f6132da601d836127a8565b91506132e5826132a6565b602082019050919050565b5f6020820190508181035f830152613307816132ce565b9050919050565b7f506f6b656d616e4e46543a207374616b65206174206c656173742072657175695f8201527f72656420616d6f756e7400000000000000000000000000000000000000000000602082015250565b5f613368602a836127a8565b91506133738261330e565b604082019050919050565b5f6020820190508181035f8301526133958161335c565b9050919050565b7f506f6b656d616e4e46543a20616c7265616479207374616b65640000000000005f82015250565b5f6133d0601a836127a8565b91506133db8261339c565b602082019050919050565b5f6020820190508181035f8301526133fd816133c4565b9050919050565b5f6060820190506134175f8301866128bc565b61342460208301856128bc565b613431604083018461294c565b949350505050565b7f506f6b656d616e4e46543a2055524920717565727920666f72206e6f6e6578695f8201527f7374656e7420746f6b656e000000000000000000000000000000000000000000602082015250565b5f613493602b836127a8565b915061349e82613439565b604082019050919050565b5f6020820190508181035f8301526134c081613487565b9050919050565b5f81905092915050565b5f6134db8261279e565b6134e581856134c7565b93506134f58185602086016127b8565b80840191505092915050565b5f61350c82856134d1565b915061351882846134d1565b91508190509392505050565b7f506f6b656d616e4e46543a204e4654206e6f74206f776e656420627920636f6e5f8201527f7472616374000000000000000000000000000000000000000000000000000000602082015250565b5f61357e6025836127a8565b915061358982613524565b604082019050919050565b5f6020820190508181035f8301526135ab81613572565b9050919050565b5f81519050919050565b5f82825260208201905092915050565b5f6135d6826135b2565b6135e081856135bc565b93506135f08185602086016127b8565b6135f9816127c6565b840191505092915050565b5f6080820190506136175f8301876128bc565b61362460208301866128bc565b613631604083018561294c565b818103606083015261364381846135cc565b905095945050505050565b5f8151905061365c81612716565b92915050565b5f60208284031215613677576136766126e3565b5b5f6136848482850161364e565b91505092915050565b5f6136978261282e565b91507fffffffffffffffffffffffffffffffffffffffffffffffffffffffffffffffff82036136c9576136c861302f565b5b600182019050919050565b7f4e487b71000000000000000000000000000000000000000000000000000000005f52601260045260245ffd5b5f61370b8261282e565b91506137168361282e565b925082613726576137256136d4565b5b828204905092915050565b5f61373b8261282e565b91506137468361282e565b925082820390508181111561375e5761375d61302f565b5b92915050565b5f61376e8261282e565b91506137798361282e565b925082613789576137886136d4565b5b82820690509291505056fe68747470733a2f2f706f6b656170692e636f2f6170692f76322f706f6b656d6f6e2fa2646970667358221220b3eac7e9e7517d19bf7e92b85edb954ebf628ca8b5e2e85fb278b398b51de2c564736f6c634300081e0033","linkReferences":{}},"methodIdentifiers":{"BASE_URI()":"dbddb26a","approve(address,uint256)":"095ea7b3","approveFromContract(address,uint256)":"dfd43d24","availableForMint(uint256)":"8ff395ac","balanceOf(address)":"70a08231","coolingPeriod()":"9328beee","getAllValidIDs()":"492bc468","getApproved(uint256)":"081812fc","isApprovedForAll(address,address)":"e985e9c5","lastMintTime(address)":"6aa71d18","mint(uint256)":"a0712d68","minted(uint256)":"7dc0bf3f","name()":"06fdde03","onERC721Received(address,address,uint256,bytes)":"150b7a02","owner()":"8da5cb5b","ownerOf(uint256)":"6352211e","pokeToken()":"4268fdf5","preMint(uint256[])":"7bf722a4","renounceOwnership()":"715018a6","requiredStake()":"19cb355d","safeTransferFrom(address,address,uint256)":"42842e0e","safeTransferFrom(address,address,uint256,bytes)":"b88d4fde","setApprovalForAll(address,bool)":"a22cb465","setAvailableForMint(uint256[])":"35c62540","setCoolingPeriod(uint256)":"07c87431","setRequiredStake(uint256)":"af9cb9f6","stake(uint256)":"a694fc3a","stakeTimestamp(address)":"70259077","stakedAmount(address)":"f9931855","supportsInterface(bytes4)":"01ffc9a7","symbol()":"95d89b41","tokenURI(uint256)":"c87b56dd","transferFrom(address,address,uint256)":"23b872dd","transferOwnership(address)":"f2fde38b","unstake()":"2def6620","validIDs(uint256)":"0ac40567"},"id":40}