{"abi":[{"type":"constructor","inputs":[],"stateMutability":"nonpayable"},{"type":"function","name":"INITIAL_SUPPLY","inputs":[],"outputs":[{"name":"","type":"uint256","internalType":"uint256"}],"stateMutability":"view"},{"type":"function","name":"MAX_AIRDROP_ADDRESSES","inputs":[],"outputs":[{"name":"","type":"uint256","internalType":"uint256"}],"stateMutability":"view"},{"type":"function","name":"allowance","inputs":[{"name":"owner","type":"address","internalType":"address"},{"name":"spender","type":"address","internalType":"address"}],"outputs":[{"name":"","type":"uint256","internalType":"uint256"}],"stateMutability":"view"},{"type":"function","name":"approve","inputs":[{"name":"spender","type":"address","internalType":"address"},{"name":"value","type":"uint256","internalType":"uint256"}],"outputs":[{"name":"","type":"bool","internalType":"bool"}],"stateMutability":"nonpayable"},{"type":"function","name":"balanceOf","inputs":[{"name":"account","type":"address","internalType":"address"}],"outputs":[{"name":"","type":"uint256","internalType":"uint256"}],"stateMutability":"view"},{"type":"function","name":"batchAirdrop","inputs":[{"name":"recipients","type":"address[]","internalType":"address[]"},{"name":"amounts","type":"uint256[]","internalType":"uint256[]"}],"outputs":[],"stateMutability":"nonpayable"},{"type":"function","name":"decimals","inputs":[],"outputs":[{"name":"","type":"uint8","internalType":"uint8"}],"stateMutability":"view"},{"type":"function","name":"name","inputs":[],"outputs":[{"name":"","type":"string","internalType":"string"}],"stateMutability":"view"},{"type":"function","name":"owner","inputs":[],"outputs":[{"name":"","type":"address","internalType":"address"}],"stateMutability":"view"},{"type":"function","name":"renounceOwnership","inputs":[],"outputs":[],"stateMutability":"nonpayable"},{"type":"function","name":"symbol","inputs":[],"outputs":[{"name":"","type":"string","internalType":"string"}],"stateMutability":"view"},{"type":"function","name":"totalSupply","inputs":[],"outputs":[{"name":"","type":"uint256","internalType":"uint256"}],"stateMutability":"view"},{"type":"function","name":"transfer","inputs":[{"name":"to","type":"address","internalType":"address"},{"name":"value","type":"uint256","internalType":"uint256"}],"outputs":[{"name":"","type":"bool","internalType":"bool"}],"stateMutability":"nonpayable"},{"type":"function","name":"transferFrom","inputs":[{"name":"from","type":"address","internalType":"address"},{"name":"to","type":"address","internalType":"address"},{"name":"value","type":"uint256","internalType":"uint256"}],"outputs":[{"name":"","type":"bool","internalType":"bool"}],"stateMutability":"nonpayable"},{"type":"function","name":"transferOwnership","inputs":[{"name":"newOwner","type":"address","internalType":"address"}],"outputs":[],"stateMutability":"nonpayable"},{"type":"event","name":"Approval","inputs":[{"name":"owner","type":"address","indexed":true,"internalType":"address"},{"name":"spender","type":"address","indexed":true,"internalType":"address"},{"name":"value","type":"uint256","indexed":false,"internalType":"uint256"}],"anonymous":false},{"type":"event","name":"BatchAirdrop","inputs":[{"name":"owner","type":"address","indexed":true,"internalType":"address"},{"name":"recipients","type":"address[]","indexed":false,"internalType":"address[]"},{"name":"amounts","type":"uint256[]","indexed":false,"internalType":"uint256[]"}],"anonymous":false},{"type":"event","name":"OwnershipTransferred","inputs":[{"name":"previousOwner","type":"address","indexed":true,"internalType":"address"},{"name":"newOwner","type":"address","indexed":true,"internalType":"address"}],"anonymous":false},{"type":"event","name":"Transfer","inputs":[{"name":"from","type":"address","indexed":true,"internalType":"address"},{"name":"to","type":"address","indexed":true,"internalType":"address"},{"name":"value","type":"uint256","indexed":false,"internalType":"uint256"}],"anonymous":false},{"type":"error","name":"ERC20InsufficientAllowance","inputs":[{"name":"spender","type":"address","internalType":"address"},{"name":"allowance","type":"uint256","internalType":"uint256"},{"name":"needed","type":"uint256","internalType":"uint256"}]},{"type":"error","name":"ERC20InsufficientBalance","inputs":[{"name":"sender","type":"address","internalType":"address"},{"name":"balance","type":"uint256","internalType":"uint256"},{"name":"needed","type":"uint256","internalType":"uint256"}]},{"type":"error","name":"ERC20InvalidApprover","inputs":[{"name":"approver","type":"address","internalType":"address"}]},{"type":"error","name":"ERC20InvalidReceiver","inputs":[{"name":"receiver","type":"address","internalType":"address"}]},{"type":"error","name":"ERC20InvalidSender","inputs":[{"name":"sender","type":"address","internalType":"address"}]},{"type":"error","name":"ERC20InvalidSpender","inputs":[{"name":"spender","type":"address","internalType":"address"}]},{"type":"error","name":"OwnableInvalidOwner","inputs":[{"name":"owner","type":"address","internalType":"address"}]},{"type":"error","name":"OwnableUnauthorizedAccount","inputs":[{"name":"account","type":"address","internalType":"address"}]}],"bytecode":{"object":"0x608060405234801561000f575f5ffd5b50336040518060400160405280600581526020017f506f6b65730000000000000000000000000000000000000000000000000000008152506040518060400160405280600481526020017f504f4b4500000000000000000000000000000000000000000000000000000000815250816003908161008c91906106e1565b50806004908161009c91906106e1565b5050505f73ffffffffffffffffffffffffffffffffffffffff168173ffffffffffffffffffffffffffffffffffffffff160361010f575f6040517f1e4fbdf700000000000000000000000000000000000000000000000000000000815260040161010691906107ef565b60405180910390fd5b61011e8161014360201b60201c565b5061013e306ec097ce7bc90715b34b9f100000000061020660201b60201c565b6108c5565b5f60055f9054906101000a900473ffffffffffffffffffffffffffffffffffffffff1690508160055f6101000a81548173ffffffffffffffffffffffffffffffffffffffff021916908373ffffffffffffffffffffffffffffffffffffffff1602179055508173ffffffffffffffffffffffffffffffffffffffff168173ffffffffffffffffffffffffffffffffffffffff167f8be0079c531659141344cd1fd0a4f28419497f9722a3daafe3b4186f6b6457e060405160405180910390a35050565b5f73ffffffffffffffffffffffffffffffffffffffff168273ffffffffffffffffffffffffffffffffffffffff1603610276575f6040517fec442f0500000000000000000000000000000000000000000000000000000000815260040161026d91906107ef565b60405180910390fd5b6102875f838361028b60201b60201c565b5050565b5f73ffffffffffffffffffffffffffffffffffffffff168373ffffffffffffffffffffffffffffffffffffffff16036102db578060025f8282546102cf9190610835565b925050819055506103a9565b5f5f5f8573ffffffffffffffffffffffffffffffffffffffff1673ffffffffffffffffffffffffffffffffffffffff1681526020019081526020015f2054905081811015610364578381836040517fe450d38c00000000000000000000000000000000000000000000000000000000815260040161035b93929190610877565b60405180910390fd5b8181035f5f8673ffffffffffffffffffffffffffffffffffffffff1673ffffffffffffffffffffffffffffffffffffffff1681526020019081526020015f2081905550505b5f73ffffffffffffffffffffffffffffffffffffffff168273ffffffffffffffffffffffffffffffffffffffff16036103f0578060025f828254039250508190555061043a565b805f5f8473ffffffffffffffffffffffffffffffffffffffff1673ffffffffffffffffffffffffffffffffffffffff1681526020019081526020015f205f82825401925050819055505b8173ffffffffffffffffffffffffffffffffffffffff168373ffffffffffffffffffffffffffffffffffffffff167fddf252ad1be2c89b69c2b068fc378daa952ba7f163c4a11628f55a4df523b3ef8360405161049791906108ac565b60405180910390a3505050565b5f81519050919050565b7f4e487b71000000000000000000000000000000000000000000000000000000005f52604160045260245ffd5b7f4e487b71000000000000000000000000000000000000000000000000000000005f52602260045260245ffd5b5f600282049050600182168061051f57607f821691505b602082108103610532576105316104db565b5b50919050565b5f819050815f5260205f209050919050565b5f6020601f8301049050919050565b5f82821b905092915050565b5f600883026105947fffffffffffffffffffffffffffffffffffffffffffffffffffffffffffffffff82610559565b61059e8683610559565b95508019841693508086168417925050509392505050565b5f819050919050565b5f819050919050565b5f6105e26105dd6105d8846105b6565b6105bf565b6105b6565b9050919050565b5f819050919050565b6105fb836105c8565b61060f610607826105e9565b848454610565565b825550505050565b5f5f905090565b610626610617565b6106318184846105f2565b505050565b5b81811015610654576106495f8261061e565b600181019050610637565b5050565b601f8211156106995761066a81610538565b6106738461054a565b81016020851015610682578190505b61069661068e8561054a565b830182610636565b50505b505050565b5f82821c905092915050565b5f6106b95f198460080261069e565b1980831691505092915050565b5f6106d183836106aa565b9150826002028217905092915050565b6106ea826104a4565b67ffffffffffffffff811115610703576107026104ae565b5b61070d8254610508565b610718828285610658565b5f60209050601f831160018114610749575f8415610737578287015190505b61074185826106c6565b8655506107a8565b601f19841661075786610538565b5f5b8281101561077e57848901518255600182019150602085019450602081019050610759565b8683101561079b5784890151610797601f8916826106aa565b8355505b6001600288020188555050505b505050505050565b5f73ffffffffffffffffffffffffffffffffffffffff82169050919050565b5f6107d9826107b0565b9050919050565b6107e9816107cf565b82525050565b5f6020820190506108025f8301846107e0565b92915050565b7f4e487b71000000000000000000000000000000000000000000000000000000005f52601160045260245ffd5b5f61083f826105b6565b915061084a836105b6565b925082820190508082111561086257610861610808565b5b92915050565b610871816105b6565b82525050565b5f60608201905061088a5f8301866107e0565b6108976020830185610868565b6108a46040830184610868565b949350505050565b5f6020820190506108bf5f830184610868565b92915050565b61177a806108d25f395ff3fe608060405234801561000f575f5ffd5b50600436106100f3575f3560e01c8063715018a611610095578063a9059cbb11610064578063a9059cbb14610263578063b816d08714610293578063dd62ed3e146102af578063f2fde38b146102df576100f3565b8063715018a6146101ff5780638da5cb5b1461020957806395d89b4114610227578063a67a2f7014610245576100f3565b806323b872dd116100d157806323b872dd146101635780632ff2e9dc14610193578063313ce567146101b157806370a08231146101cf576100f3565b806306fdde03146100f7578063095ea7b31461011557806318160ddd14610145575b5f5ffd5b6100ff6102fb565b60405161010c9190610f77565b60405180910390f35b61012f600480360381019061012a919061102c565b61038b565b60405161013c9190611084565b60405180910390f35b61014d6103ad565b60405161015a91906110ac565b60405180910390f35b61017d600480360381019061017891906110c5565b6103b6565b60405161018a9190611084565b60405180910390f35b61019b6103e4565b6040516101a891906110ac565b60405180910390f35b6101b96103f7565b6040516101c69190611130565b60405180910390f35b6101e960048036038101906101e49190611149565b6103ff565b6040516101f691906110ac565b60405180910390f35b610207610444565b005b610211610457565b60405161021e9190611183565b60405180910390f35b61022f61047f565b60405161023c9190610f77565b60405180910390f35b61024d61050f565b60405161025a91906110ac565b60405180910390f35b61027d6004803603810190610278919061102c565b610514565b60405161028a9190611084565b60405180910390f35b6102ad60048036038101906102a89190611252565b610536565b005b6102c960048036038101906102c491906112d0565b610733565b6040516102d691906110ac565b60405180910390f35b6102f960048036038101906102f49190611149565b6107b5565b005b60606003805461030a9061133b565b80601f01602080910402602001604051908101604052809291908181526020018280546103369061133b565b80156103815780601f1061035857610100808354040283529160200191610381565b820191905f5260205f20905b81548152906001019060200180831161036457829003601f168201915b5050505050905090565b5f5f610395610839565b90506103a2818585610840565b600191505092915050565b5f600254905090565b5f5f6103c0610839565b90506103cd858285610852565b6103d88585856108e5565b60019150509392505050565b6ec097ce7bc90715b34b9f100000000081565b5f6012905090565b5f5f5f8373ffffffffffffffffffffffffffffffffffffffff1673ffffffffffffffffffffffffffffffffffffffff1681526020019081526020015f20549050919050565b61044c6109d5565b6104555f610a5c565b565b5f60055f9054906101000a900473ffffffffffffffffffffffffffffffffffffffff16905090565b60606004805461048e9061133b565b80601f01602080910402602001604051908101604052809291908181526020018280546104ba9061133b565b80156105055780601f106104dc57610100808354040283529160200191610505565b820191905f5260205f20905b8154815290600101906020018083116104e857829003601f168201915b5050505050905090565b600a81565b5f5f61051e610839565b905061052b8185856108e5565b600191505092915050565b61053e6109d5565b818190508484905014610586576040517f08c379a000000000000000000000000000000000000000000000000000000000815260040161057d906113db565b60405180910390fd5b5f8484905011801561059c5750600a8484905011155b6105db576040517f08c379a00000000000000000000000000000000000000000000000000000000081526004016105d290611469565b60405180910390fd5b5f5f90505f5f90505b838390508110156106235783838281811061060257610601611487565b5b905060200201358261061491906114e1565b915080806001019150506105e4565b508061062e306103ff565b101561066f576040517f08c379a000000000000000000000000000000000000000000000000000000000815260040161066690611584565b60405180910390fd5b5f5f90505b858590508110156106d7576106ca3087878481811061069657610695611487565b5b90506020020160208101906106ab9190611149565b8686858181106106be576106bd611487565b5b905060200201356108e5565b8080600101915050610674565b503373ffffffffffffffffffffffffffffffffffffffff167fc1d2bf19b648124d3a5619b92e643c0291c3546fecfc9bf7ef489b78284327a08686868660405161072494939291906116d6565b60405180910390a25050505050565b5f60015f8473ffffffffffffffffffffffffffffffffffffffff1673ffffffffffffffffffffffffffffffffffffffff1681526020019081526020015f205f8373ffffffffffffffffffffffffffffffffffffffff1673ffffffffffffffffffffffffffffffffffffffff1681526020019081526020015f2054905092915050565b6107bd6109d5565b5f73ffffffffffffffffffffffffffffffffffffffff168173ffffffffffffffffffffffffffffffffffffffff160361082d575f6040517f1e4fbdf70000000000000000000000000000000000000000000000000000000081526004016108249190611183565b60405180910390fd5b61083681610a5c565b50565b5f33905090565b61084d8383836001610b1f565b505050565b5f61085d8484610733565b90507fffffffffffffffffffffffffffffffffffffffffffffffffffffffffffffffff8110156108df57818110156108d0578281836040517ffb8f41b20000000000000000000000000000000000000000000000000000000081526004016108c79392919061170f565b60405180910390fd5b6108de84848484035f610b1f565b5b50505050565b5f73ffffffffffffffffffffffffffffffffffffffff168373ffffffffffffffffffffffffffffffffffffffff1603610955575f6040517f96c6fd1e00000000000000000000000000000000000000000000000000000000815260040161094c9190611183565b60405180910390fd5b5f73ffffffffffffffffffffffffffffffffffffffff168273ffffffffffffffffffffffffffffffffffffffff16036109c5575f6040517fec442f050000000000000000000000000000000000000000000000000000000081526004016109bc9190611183565b60405180910390fd5b6109d0838383610cee565b505050565b6109dd610839565b73ffffffffffffffffffffffffffffffffffffffff166109fb610457565b73ffffffffffffffffffffffffffffffffffffffff1614610a5a57610a1e610839565b6040517f118cdaa7000000000000000000000000000000000000000000000000000000008152600401610a519190611183565b60405180910390fd5b565b5f60055f9054906101000a900473ffffffffffffffffffffffffffffffffffffffff1690508160055f6101000a81548173ffffffffffffffffffffffffffffffffffffffff021916908373ffffffffffffffffffffffffffffffffffffffff1602179055508173ffffffffffffffffffffffffffffffffffffffff168173ffffffffffffffffffffffffffffffffffffffff167f8be0079c531659141344cd1fd0a4f28419497f9722a3daafe3b4186f6b6457e060405160405180910390a35050565b5f73ffffffffffffffffffffffffffffffffffffffff168473ffffffffffffffffffffffffffffffffffffffff1603610b8f575f6040517fe602df05000000000000000000000000000000000000000000000000000000008152600401610b869190611183565b60405180910390fd5b5f73ffffffffffffffffffffffffffffffffffffffff168373ffffffffffffffffffffffffffffffffffffffff1603610bff575f6040517f94280d62000000000000000000000000000000000000000000000000000000008152600401610bf69190611183565b60405180910390fd5b8160015f8673ffffffffffffffffffffffffffffffffffffffff1673ffffffffffffffffffffffffffffffffffffffff1681526020019081526020015f205f8573ffffffffffffffffffffffffffffffffffffffff1673ffffffffffffffffffffffffffffffffffffffff1681526020019081526020015f20819055508015610ce8578273ffffffffffffffffffffffffffffffffffffffff168473ffffffffffffffffffffffffffffffffffffffff167f8c5be1e5ebec7d5bd14f71427d1e84f3dd0314c0f7b2291e5b200ac8c7c3b92584604051610cdf91906110ac565b60405180910390a35b50505050565b5f73ffffffffffffffffffffffffffffffffffffffff168373ffffffffffffffffffffffffffffffffffffffff1603610d3e578060025f828254610d3291906114e1565b92505081905550610e0c565b5f5f5f8573ffffffffffffffffffffffffffffffffffffffff1673ffffffffffffffffffffffffffffffffffffffff1681526020019081526020015f2054905081811015610dc7578381836040517fe450d38c000000000000000000000000000000000000000000000000000000008152600401610dbe9392919061170f565b60405180910390fd5b8181035f5f8673ffffffffffffffffffffffffffffffffffffffff1673ffffffffffffffffffffffffffffffffffffffff1681526020019081526020015f2081905550505b5f73ffffffffffffffffffffffffffffffffffffffff168273ffffffffffffffffffffffffffffffffffffffff1603610e53578060025f8282540392505081905550610e9d565b805f5f8473ffffffffffffffffffffffffffffffffffffffff1673ffffffffffffffffffffffffffffffffffffffff1681526020019081526020015f205f82825401925050819055505b8173ffffffffffffffffffffffffffffffffffffffff168373ffffffffffffffffffffffffffffffffffffffff167fddf252ad1be2c89b69c2b068fc378daa952ba7f163c4a11628f55a4df523b3ef83604051610efa91906110ac565b60405180910390a3505050565b5f81519050919050565b5f82825260208201905092915050565b8281835e5f83830152505050565b5f601f19601f8301169050919050565b5f610f4982610f07565b610f538185610f11565b9350610f63818560208601610f21565b610f6c81610f2f565b840191505092915050565b5f6020820190508181035f830152610f8f8184610f3f565b905092915050565b5f5ffd5b5f5ffd5b5f73ffffffffffffffffffffffffffffffffffffffff82169050919050565b5f610fc882610f9f565b9050919050565b610fd881610fbe565b8114610fe2575f5ffd5b50565b5f81359050610ff381610fcf565b92915050565b5f819050919050565b61100b81610ff9565b8114611015575f5ffd5b50565b5f8135905061102681611002565b92915050565b5f5f6040838503121561104257611041610f97565b5b5f61104f85828601610fe5565b925050602061106085828601611018565b9150509250929050565b5f8115159050919050565b61107e8161106a565b82525050565b5f6020820190506110975f830184611075565b92915050565b6110a681610ff9565b82525050565b5f6020820190506110bf5f83018461109d565b92915050565b5f5f5f606084860312156110dc576110db610f97565b5b5f6110e986828701610fe5565b93505060206110fa86828701610fe5565b925050604061110b86828701611018565b9150509250925092565b5f60ff82169050919050565b61112a81611115565b82525050565b5f6020820190506111435f830184611121565b92915050565b5f6020828403121561115e5761115d610f97565b5b5f61116b84828501610fe5565b91505092915050565b61117d81610fbe565b82525050565b5f6020820190506111965f830184611174565b92915050565b5f5ffd5b5f5ffd5b5f5ffd5b5f5f83601f8401126111bd576111bc61119c565b5b8235905067ffffffffffffffff8111156111da576111d96111a0565b5b6020830191508360208202830111156111f6576111f56111a4565b5b9250929050565b5f5f83601f8401126112125761121161119c565b5b8235905067ffffffffffffffff81111561122f5761122e6111a0565b5b60208301915083602082028301111561124b5761124a6111a4565b5b9250929050565b5f5f5f5f6040858703121561126a57611269610f97565b5b5f85013567ffffffffffffffff81111561128757611286610f9b565b5b611293878288016111a8565b9450945050602085013567ffffffffffffffff8111156112b6576112b5610f9b565b5b6112c2878288016111fd565b925092505092959194509250565b5f5f604083850312156112e6576112e5610f97565b5b5f6112f385828601610fe5565b925050602061130485828601610fe5565b9150509250929050565b7f4e487b71000000000000000000000000000000000000000000000000000000005f52602260045260245ffd5b5f600282049050600182168061135257607f821691505b6020821081036113655761136461130e565b5b50919050565b7f506f6b65546f6b656e3a20726563697069656e747320616e6420616d6f756e745f8201527f73206c656e677468206d69736d61746368000000000000000000000000000000602082015250565b5f6113c5603183610f11565b91506113d08261136b565b604082019050919050565b5f6020820190508181035f8301526113f2816113b9565b9050919050565b7f506f6b65546f6b656e3a20696e76616c6964206e756d626572206f66207265635f8201527f697069656e747300000000000000000000000000000000000000000000000000602082015250565b5f611453602783610f11565b915061145e826113f9565b604082019050919050565b5f6020820190508181035f83015261148081611447565b9050919050565b7f4e487b71000000000000000000000000000000000000000000000000000000005f52603260045260245ffd5b7f4e487b71000000000000000000000000000000000000000000000000000000005f52601160045260245ffd5b5f6114eb82610ff9565b91506114f683610ff9565b925082820190508082111561150e5761150d6114b4565b5b92915050565b7f506f6b65546f6b656e3a20696e73756666696369656e7420636f6e74726163745f8201527f2062616c616e6365000000000000000000000000000000000000000000000000602082015250565b5f61156e602883610f11565b915061157982611514565b604082019050919050565b5f6020820190508181035f83015261159b81611562565b9050919050565b5f82825260208201905092915050565b5f819050919050565b6115c481610fbe565b82525050565b5f6115d583836115bb565b60208301905092915050565b5f6115ef6020840184610fe5565b905092915050565b5f602082019050919050565b5f61160e83856115a2565b9350611619826115b2565b805f5b858110156116515761162e82846115e1565b61163888826115ca565b9750611643836115f7565b92505060018101905061161c565b5085925050509392505050565b5f82825260208201905092915050565b5f5ffd5b82818337505050565b5f611686838561165e565b93507f07ffffffffffffffffffffffffffffffffffffffffffffffffffffffffffffff8311156116b9576116b861166e565b5b6020830292506116ca838584611672565b82840190509392505050565b5f6040820190508181035f8301526116ef818688611603565b9050818103602083015261170481848661167b565b905095945050505050565b5f6060820190506117225f830186611174565b61172f602083018561109d565b61173c604083018461109d565b94935050505056fea2646970667358221220b56eed356b5e0cf20be295567b4517182af54cdb66c92d4a04c377fbebf1a22a64736f6c634300081e0033","linkReferences":{}},"methodIdentifiers":{"INITIAL_SUPPLY()":"2ff2e9dc","MAX_AIRDROP_ADDRESSES()":"a67a2f70","allowance(address,address)":"dd62ed3e","approve(address,uint256)":"095ea7b3","balanceOf(address)":"70a08231","batchAirdrop(address[],uint256[])":"b816d087","decimals()":"313ce567","name()":"06fdde03","owner()":"8da5cb5b","renounceOwnership()":"715018a6","symbol()":"95d89b41","totalSupply()":"18160ddd","transfer(address,uint256)":"a9059cbb","transferFrom(address,address,uint256)":"23b872dd","transferOwnership(address)":"f2fde38b"},"id":38}