{"abi":[{"type":"constructor","inputs":[{"name":"_pokemanNFT","type":"address","internalType":"address"},{"name":"_pokeToken","type":"address","internalType":"address"}],"stateMutability":"nonpayable"},{"type":"function","name":"buy","inputs":[{"name":"tokenId","type":"uint256","internalType":"uint256"}],"outputs":[],"stateMutability":"nonpayable"},{"type":"function","name":"cancel","inputs":[{"name":"tokenId","type":"uint256","internalType":"uint256"}],"outputs":[],"stateMutability":"nonpayable"},{"type":"function","name":"isListed","inputs":[{"name":"tokenId","type":"uint256","internalType":"uint256"}],"outputs":[{"name":"","type":"bool","internalType":"bool"}],"stateMutability":"view"},{"type":"function","name":"list","inputs":[{"name":"tokenId","type":"uint256","internalType":"uint256"},{"name":"price","type":"uint256","internalType":"uint256"}],"outputs":[],"stateMutability":"nonpayable"},{"type":"function","name":"listings","inputs":[{"name":"","type":"uint256","internalType":"uint256"}],"outputs":[{"name":"seller","type":"address","internalType":"address"},{"name":"price","type":"uint256","internalType":"uint256"}],"stateMutability":"view"},{"type":"function","name":"onERC721Received","inputs":[{"name":"","type":"address","internalType":"address"},{"name":"","type":"address","internalType":"address"},{"name":"","type":"uint256","internalType":"uint256"},{"name":"","type":"bytes","internalType":"bytes"}],"outputs":[{"name":"","type":"bytes4","internalType":"bytes4"}],"stateMutability":"pure"},{"type":"function","name":"pokeToken","inputs":[],"outputs":[{"name":"","type":"address","internalType":"contract IERC20"}],"stateMutability":"view"},{"type":"function","name":"pokemanNFT","inputs":[],"outputs":[{"name":"","type":"address","internalType":"contract IERC721"}],"stateMutability":"view"},{"type":"function","name":"pokemanNFTContract","inputs":[],"outputs":[{"name":"","type":"address","internalType":"contract PokemanNFT"}],"stateMutability":"view"},{"type":"event","name":"Cancelled","inputs":[{"name":"seller","type":"address","indexed":true,"internalType":"address"},{"name":"tokenId","type":"uint256","indexed":true,"internalType":"uint256"}],"anonymous":false},{"type":"event","name":"Listed","inputs":[{"name":"seller","type":"address","indexed":true,"internalType":"address"},{"name":"tokenId","type":"uint256","indexed":true,"internalType":"uint256"},{"name":"price","type":"uint256","indexed":false,"internalType":"uint256"}],"anonymous":false},{"type":"event","name":"Sale","inputs":[{"name":"buyer","type":"address","indexed":true,"internalType":"address"},{"name":"tokenId","type":"uint256","indexed":true,"internalType":"uint256"},{"name":"price","type":"uint256","indexed":false,"internalType":"uint256"}],"anonymous":false},{"type":"error","name":"ReentrancyGuardReentrantCall","inputs":[]}],"bytecode":{"object":"0x60e060405234801561000f575f5ffd5b506040516118f33803806118f383398181016040528101906100319190610139565b60015f819055508173ffffffffffffffffffffffffffffffffffffffff1660808173ffffffffffffffffffffffffffffffffffffffff16815250508073ffffffffffffffffffffffffffffffffffffffff1660a08173ffffffffffffffffffffffffffffffffffffffff16815250508173ffffffffffffffffffffffffffffffffffffffff1660c08173ffffffffffffffffffffffffffffffffffffffff16815250505050610177565b5f5ffd5b5f73ffffffffffffffffffffffffffffffffffffffff82169050919050565b5f610108826100df565b9050919050565b610118816100fe565b8114610122575f5ffd5b50565b5f815190506101338161010f565b92915050565b5f5f6040838503121561014f5761014e6100db565b5b5f61015c85828601610125565b925050602061016d85828601610125565b9150509250929050565b60805160a05160c0516117136101e05f395f81816107290152818161077c015281816108b20152610a6601525f81816103ea0152610bf101525f81816102d80152818161040f015281816105be0152818161087601528181610a420152610cd401526117135ff3fe608060405234801561000f575f5ffd5b5060043610610091575f3560e01c80638492192711610064578063849219271461011b578063d956409d14610139578063d96a094a14610157578063de74e57b14610173578063fcce4883146101a457610091565b8063150b7a021461009557806340e58ee5146100c55780634268fdf5146100e157806350fd7367146100ff575b5f5ffd5b6100af60048036038101906100aa9190610fe7565b6101d4565b6040516100bc91906110a5565b60405180910390f35b6100df60048036038101906100da91906110be565b6101e8565b005b6100e96103e8565b6040516100f69190611144565b60405180910390f35b6101196004803603810190610114919061115d565b61040c565b005b610123610a40565b60405161013091906111bb565b60405180910390f35b610141610a64565b60405161014e91906111f4565b60405180910390f35b610171600480360381019061016c91906110be565b610a88565b005b61018d600480360381019061018891906110be565b610dfb565b60405161019b92919061122b565b60405180910390f35b6101be60048036038101906101b991906110be565b610e3a565b6040516101cb919061126c565b60405180910390f35b5f63150b7a0260e01b905095945050505050565b5f60015f8381526020019081526020015f206040518060400160405290815f82015f9054906101000a900473ffffffffffffffffffffffffffffffffffffffff1673ffffffffffffffffffffffffffffffffffffffff1673ffffffffffffffffffffffffffffffffffffffff16815260200160018201548152505090503373ffffffffffffffffffffffffffffffffffffffff16815f015173ffffffffffffffffffffffffffffffffffffffff16146102d6576040517f08c379a00000000000000000000000000000000000000000000000000000000081526004016102cd906112df565b60405180910390fd5b7f000000000000000000000000000000000000000000000000000000000000000073ffffffffffffffffffffffffffffffffffffffff166323b872dd3033856040518463ffffffff1660e01b8152600401610333939291906112fd565b5f604051808303815f87803b15801561034a575f5ffd5b505af115801561035c573d5f5f3e3d5ffd5b5050505060015f8381526020019081526020015f205f5f82015f6101000a81549073ffffffffffffffffffffffffffffffffffffffff0219169055600182015f90555050813373ffffffffffffffffffffffffffffffffffffffff167f36ea5cd5608625e789af0282eecdb4eae1cb7c1cf6d0ec3f9a84f35be850260b60405160405180910390a35050565b7f000000000000000000000000000000000000000000000000000000000000000081565b5f7f000000000000000000000000000000000000000000000000000000000000000073ffffffffffffffffffffffffffffffffffffffff16636352211e846040518263ffffffff1660e01b81526004016104669190611332565b602060405180830381865afa158015610481573d5f5f3e3d5ffd5b505050506040513d601f19601f820116820180604052508101906104a5919061135f565b90505f82116104e9576040517f08c379a00000000000000000000000000000000000000000000000000000000081526004016104e0906113d4565b60405180910390fd5b5f73ffffffffffffffffffffffffffffffffffffffff1660015f8581526020019081526020015f205f015f9054906101000a900473ffffffffffffffffffffffffffffffffffffffff1673ffffffffffffffffffffffffffffffffffffffff1614610589576040517f08c379a00000000000000000000000000000000000000000000000000000000081526004016105809061143c565b60405180910390fd5b3373ffffffffffffffffffffffffffffffffffffffff168173ffffffffffffffffffffffffffffffffffffffff1603610727577f000000000000000000000000000000000000000000000000000000000000000073ffffffffffffffffffffffffffffffffffffffff166323b872dd3330866040518463ffffffff1660e01b8152600401610619939291906112fd565b5f604051808303815f87803b158015610630575f5ffd5b505af1158015610642573d5f5f3e3d5ffd5b5050505060405180604001604052803373ffffffffffffffffffffffffffffffffffffffff1681526020018381525060015f8581526020019081526020015f205f820151815f015f6101000a81548173ffffffffffffffffffffffffffffffffffffffff021916908373ffffffffffffffffffffffffffffffffffffffff16021790555060208201518160010155905050823373ffffffffffffffffffffffffffffffffffffffff167f6e16e8064e3c8254cef11e01e152416398602d7e8785f743f1c2f93a9a15ff358460405161071a9190611332565b60405180910390a3610a3b565b7f000000000000000000000000000000000000000000000000000000000000000073ffffffffffffffffffffffffffffffffffffffff168173ffffffffffffffffffffffffffffffffffffffff16036109ff577f000000000000000000000000000000000000000000000000000000000000000073ffffffffffffffffffffffffffffffffffffffff16638da5cb5b6040518163ffffffff1660e01b8152600401602060405180830381865afa1580156107e3573d5f5f3e3d5ffd5b505050506040513d601f19601f82011682018060405250810190610807919061135f565b73ffffffffffffffffffffffffffffffffffffffff163373ffffffffffffffffffffffffffffffffffffffff1614610874576040517f08c379a000000000000000000000000000000000000000000000000000000000815260040161086b906114ca565b60405180910390fd5b7f000000000000000000000000000000000000000000000000000000000000000073ffffffffffffffffffffffffffffffffffffffff166342842e0e7f000000000000000000000000000000000000000000000000000000000000000030866040518463ffffffff1660e01b81526004016108f1939291906112fd565b5f604051808303815f87803b158015610908575f5ffd5b505af115801561091a573d5f5f3e3d5ffd5b5050505060405180604001604052803373ffffffffffffffffffffffffffffffffffffffff1681526020018381525060015f8581526020019081526020015f205f820151815f015f6101000a81548173ffffffffffffffffffffffffffffffffffffffff021916908373ffffffffffffffffffffffffffffffffffffffff16021790555060208201518160010155905050823373ffffffffffffffffffffffffffffffffffffffff167f6e16e8064e3c8254cef11e01e152416398602d7e8785f743f1c2f93a9a15ff35846040516109f29190611332565b60405180910390a3610a3a565b6040517f08c379a0000000000000000000000000000000000000000000000000000000008152600401610a3190611532565b60405180910390fd5b5b505050565b7f000000000000000000000000000000000000000000000000000000000000000081565b7f000000000000000000000000000000000000000000000000000000000000000081565b610a90610ea4565b5f60015f8381526020019081526020015f206040518060400160405290815f82015f9054906101000a900473ffffffffffffffffffffffffffffffffffffffff1673ffffffffffffffffffffffffffffffffffffffff1673ffffffffffffffffffffffffffffffffffffffff16815260200160018201548152505090505f73ffffffffffffffffffffffffffffffffffffffff16815f015173ffffffffffffffffffffffffffffffffffffffff1603610b7e576040517f08c379a0000000000000000000000000000000000000000000000000000000008152600401610b759061159a565b60405180910390fd5b3373ffffffffffffffffffffffffffffffffffffffff16815f015173ffffffffffffffffffffffffffffffffffffffff1603610bef576040517f08c379a0000000000000000000000000000000000000000000000000000000008152600401610be690611602565b60405180910390fd5b7f000000000000000000000000000000000000000000000000000000000000000073ffffffffffffffffffffffffffffffffffffffff166323b872dd33835f015184602001516040518463ffffffff1660e01b8152600401610c53939291906112fd565b6020604051808303815f875af1158015610c6f573d5f5f3e3d5ffd5b505050506040513d601f19601f82011682018060405250810190610c93919061164a565b610cd2576040517f08c379a0000000000000000000000000000000000000000000000000000000008152600401610cc9906116bf565b60405180910390fd5b7f000000000000000000000000000000000000000000000000000000000000000073ffffffffffffffffffffffffffffffffffffffff166323b872dd3033856040518463ffffffff1660e01b8152600401610d2f939291906112fd565b5f604051808303815f87803b158015610d46575f5ffd5b505af1158015610d58573d5f5f3e3d5ffd5b5050505060015f8381526020019081526020015f205f5f82015f6101000a81549073ffffffffffffffffffffffffffffffffffffffff0219169055600182015f90555050813373ffffffffffffffffffffffffffffffffffffffff167f0f4a9c70987615d71a1085cae3c6fb0c2855f81a5ec62cb7ee3136d5407e357c8360200151604051610de79190611332565b60405180910390a350610df8610ee8565b50565b6001602052805f5260405f205f91509050805f015f9054906101000a900473ffffffffffffffffffffffffffffffffffffffff16908060010154905082565b5f5f73ffffffffffffffffffffffffffffffffffffffff1660015f8481526020019081526020015f205f015f9054906101000a900473ffffffffffffffffffffffffffffffffffffffff1673ffffffffffffffffffffffffffffffffffffffff1614159050919050565b60025f5403610edf576040517f3ee5aeb500000000000000000000000000000000000000000000000000000000815260040160405180910390fd5b60025f81905550565b60015f81905550565b5f5ffd5b5f5ffd5b5f73ffffffffffffffffffffffffffffffffffffffff82169050919050565b5f610f2282610ef9565b9050919050565b610f3281610f18565b8114610f3c575f5ffd5b50565b5f81359050610f4d81610f29565b92915050565b5f819050919050565b610f6581610f53565b8114610f6f575f5ffd5b50565b5f81359050610f8081610f5c565b92915050565b5f5ffd5b5f5ffd5b5f5ffd5b5f5f83601f840112610fa757610fa6610f86565b5b8235905067ffffffffffffffff811115610fc457610fc3610f8a565b5b602083019150836001820283011115610fe057610fdf610f8e565b5b9250929050565b5f5f5f5f5f6080868803121561100057610fff610ef1565b5b5f61100d88828901610f3f565b955050602061101e88828901610f3f565b945050604061102f88828901610f72565b935050606086013567ffffffffffffffff8111156110505761104f610ef5565b5b61105c88828901610f92565b92509250509295509295909350565b5f7fffffffff0000000000000000000000000000000000000000000000000000000082169050919050565b61109f8161106b565b82525050565b5f6020820190506110b85f830184611096565b92915050565b5f602082840312156110d3576110d2610ef1565b5b5f6110e084828501610f72565b91505092915050565b5f819050919050565b5f61110c61110761110284610ef9565b6110e9565b610ef9565b9050919050565b5f61111d826110f2565b9050919050565b5f61112e82611113565b9050919050565b61113e81611124565b82525050565b5f6020820190506111575f830184611135565b92915050565b5f5f6040838503121561117357611172610ef1565b5b5f61118085828601610f72565b925050602061119185828601610f72565b9150509250929050565b5f6111a582611113565b9050919050565b6111b58161119b565b82525050565b5f6020820190506111ce5f8301846111ac565b92915050565b5f6111de82611113565b9050919050565b6111ee816111d4565b82525050565b5f6020820190506112075f8301846111e5565b92915050565b61121681610f18565b82525050565b61122581610f53565b82525050565b5f60408201905061123e5f83018561120d565b61124b602083018461121c565b9392505050565b5f8115159050919050565b61126681611252565b82525050565b5f60208201905061127f5f83018461125d565b92915050565b5f82825260208201905092915050565b7f4e6f742073656c6c6572000000000000000000000000000000000000000000005f82015250565b5f6112c9600a83611285565b91506112d482611295565b602082019050919050565b5f6020820190508181035f8301526112f6816112bd565b9050919050565b5f6060820190506113105f83018661120d565b61131d602083018561120d565b61132a604083018461121c565b949350505050565b5f6020820190506113455f83018461121c565b92915050565b5f8151905061135981610f29565b92915050565b5f6020828403121561137457611373610ef1565b5b5f6113818482850161134b565b91505092915050565b7f5072696365206d757374206265203e20300000000000000000000000000000005f82015250565b5f6113be601183611285565b91506113c98261138a565b602082019050919050565b5f6020820190508181035f8301526113eb816113b2565b9050919050565b7f416c7265616479206c69737465640000000000000000000000000000000000005f82015250565b5f611426600e83611285565b9150611431826113f2565b602082019050919050565b5f6020820190508181035f8301526114538161141a565b9050919050565b7f4f6e6c7920506f6b656d616e4e4654206f776e65722063616e206c69737420635f8201527f6f6e74726163742d68656c64204e465400000000000000000000000000000000602082015250565b5f6114b4603083611285565b91506114bf8261145a565b604082019050919050565b5f6020820190508181035f8301526114e1816114a8565b9050919050565b7f4e6f74204e4654206f776e6572206f7220636f6e74726163742d68656c6400005f82015250565b5f61151c601e83611285565b9150611527826114e8565b602082019050919050565b5f6020820190508181035f83015261154981611510565b9050919050565b7f4e6f74206c6973746564000000000000000000000000000000000000000000005f82015250565b5f611584600a83611285565b915061158f82611550565b602082019050919050565b5f6020820190508181035f8301526115b181611578565b9050919050565b7f43616e6e6f742062757920796f7572206f776e204e46540000000000000000005f82015250565b5f6115ec601783611285565b91506115f7826115b8565b602082019050919050565b5f6020820190508181035f830152611619816115e0565b9050919050565b61162981611252565b8114611633575f5ffd5b50565b5f8151905061164481611620565b92915050565b5f6020828403121561165f5761165e610ef1565b5b5f61166c84828501611636565b91505092915050565b7f504f4b45207472616e73666572206661696c65640000000000000000000000005f82015250565b5f6116a9601483611285565b91506116b482611675565b602082019050919050565b5f6020820190508181035f8301526116d68161169d565b905091905056fea2646970667358221220ecfda1aae92bdc3609e4ec491290d3c4582c0dd115c0cca1acdc38b76404bf9b64736f6c634300081e0033","linkReferences":{}},"methodIdentifiers":{"buy(uint256)":"d96a094a","cancel(uint256)":"40e58ee5","isListed(uint256)":"fcce4883","list(uint256,uint256)":"50fd7367","listings(uint256)":"de74e57b","onERC721Received(address,address,uint256,bytes)":"150b7a02","pokeToken()":"4268fdf5","pokemanNFT()":"84921927","pokemanNFTContract()":"d956409d"},"id":39}